:020000040800F2
:10000000700B002065100008090400080B040008AC
:100010000F04000813040008170400080000000083
:100020000000000000000000000000001B040008A9
:100030001D040008000000001F040008210400083F
:100040007F1000087F1000087F1000087F10000854
:100050007F1000087F1000087F1000087F10000844
:100060007F1000087F1000087F1000087F10000834
:100070007F1000087F1000087F1000087F10000824
:100080007F1000087F1000087F1000087F10000814
:100090007F1000087F1000087F1000087F10000804
:1000A0007F1000087F1000087F1000087F100008F4
:1000B000EB0600082D0E00087F1000087F100008D6
:1000C0007F1000087F1000087F1000087F100008D4
:1000D0007F100008DB0F00087F1000087F10000869
:1000E0007F1000087F1000087F10000800F002F861
:1000F00000F03AF80AA090E8000C82448344AAF188
:100100000107DA4501D100F02FF8AFF2090EBAE885
:100110000F0013F0010F18BFFB1A43F0010318473B
:100120004435000064350000103A24BF78C878C117
:10013000FAD8520724BF30C830C144BF04680C60ED
:10014000704700000023002400250026103A28BF35
:1001500078C1FBD8520728BF30C148BF0B60704739
:100160001FB51FBD10B510BD02F051FF1146FFF7BE
:10017000F7FF00F058F802F06FFF03B4FFF7F2FF4B
:1001800003BC00F0CFFE000010B50421844801F04C
:100190007CF8012812D1002082490880824800782A
:1001A000012803D10220804908700CE07E480078C5
:1001B000022808D100207C49087004E079480088B2
:1001C000401C78490880774800880A2802DD012011
:1001D0007549087010BD10B54FF48071734801F077
:1001E00054F8012812D10020714908807148007824
:1001F000012803D102206F4908700CE06D48007897
:10020000022808D100206B49087004E06848008883
:10021000401C67490880664800880A2802DD0120E2
:100220006449087010BD00F013FE4FF4A06001F0A7
:10023000BDFC4FF4E13000F084FE00F0C9FD00F099
:1002400061FA00F02AFB00F0ABFD00F0DBF95AA2E6
:100250000A21084600F087FD5BA21921052000F065
:1002600082FD5DA22D21142000F07DFD00F026FC12
:1002700040F6B83000F029FE00F0E0FA00F01EFC75
:100280008CE0584800780128FAD1FFF77DFFFFF78E
:10029000A2FF48480078022809D15348008818B9BD
:1002A00001205149088002E000204F4908804FF0AA
:1002B000804002F0D0FBA0F57A7000B24B49088074
:1002C0004FF47A71C80602F0A3FB37480078012882
:1002D00008D14748008845490988401A00B2444976
:1002E000088007E04348008840490988401A00B266
:1002F000404908803F48B0F90000642803DD6420CD
:100300003C49088007E03B48B0F90000002802DAC9
:100310000020384908803648B0F90000642803DD21
:1003200064203349088007E03148B0F90000002814
:1003300002DA00202E4908802B480088012822D1AB
:100340002B48B0F900102B48B0F9000000F031FA4A
:1003500029A21421084600F006FD29A22821142014
:1003600000F001FD03232348B0F90020142154209C
:1003700000F0B7FC03231E48B0F9002028215420C8
:1003800000F0AFFC05E03221002000F012FA00F08E
:1003900055FA00201349087000F090FB71E7000047
:1003A000000801400000002002000020000C014075
:1003B0000600002008000020576F726B4C616D70C2
:1003C0002056302E310000004D795F54656368205F
:1003D00053747564696F00004279204C69754C69EB
:1003E0007A686900240000200A0000200400002030
:1003F0000E0000200C0000204272696768743A0009
:10040000436F6C6F723A0000704700BFFEE700BF99
:10041000FEE700BFFEE700BFFEE77047704770478A
:10042000704700000CB50020019000906C480068F7
:1004300040F480306A49086000BF6948006800F4F1
:10044000003000900198401C0190009818B9019864
:10045000B0F5A06FF1D16248006800F4003010B12F
:100460000120009001E0002000900098012843D175
:100470005C48006840F010005A490860084600686F
:1004800020F0030008600846006840F002000860A1
:1004900053484068524948600846406848600846EA
:1004A000406840F4806048600846406820F47C1052
:1004B00048600846406840F4E81048600846006814
:1004C00040F08070086000BF4548006800F0007090
:1004D0000028F9D04248406820F0030040494860B5
:1004E0000846406840F00200486000BF3C48406851
:1004F00000F00C000828F9D10CBD10B5FFF792FFF1
:1005000010BD10B53648006840F00100344908605D
:100510000846406834490840314948600846006848
:10052000324908402E4908600846006820F48020BF
:1005300008600846406820F4FE0048604FF41F0041
:100540008860FFF7DAFF4FF000602949086010BDAE
:1005500010B5002100200022214B5B6803F00C0144
:1005600021B1042906D0082928D107E0214B224CCB
:10057000236027E01F4B204C236023E0184B5B686F
:1005800003F47010164B5B6803F48032022303EB14
:10059000904022B9194B4343174C23600DE0104B98
:1005A0005B6803F4003323B1144B4343124C2360C4
:1005B00003E0104B4343104C236003E00D4B0E4C03
:1005C000236000BF00BF064B5B68C3F303130C4CF2
:1005D000E15C094B1B68CB40074C236010BD000059
:1005E00000100240002002400000FFF8FFFFF6FE6E
:1005F00008ED00E000127A001000002000093D0024
:100600001400002000B589B00121084601F073F8FC
:100610000121042001F062F80720ADF82000042039
:100620008DF8230003208DF8220008A9344800F03B
:1006300099FD0020ADF810004FF4FA60ADF81400F9
:100640000020ADF81600ADF8120004A94FF080406C
:1006500001F0EEFB0020ADF80400ADF8060001202B
:10066000ADF808000020ADF80A000520ADF80C0038
:1006700001A9800701F06FFE0420ADF804000020FE
:10068000ADF806000120ADF808000020ADF80A0022
:100690000520ADF80C0001A9800701F05CFE0023E5
:1006A0001A4603214FF0804001F0D1FF1C208DF845
:1006B0001C0001208DF81F008DF81D0002208DF810
:1006C0001E0007A801F077FA01221146900701F0F9
:1006D00026FF0121880701F007FF4FF47A71C80651
:1006E00002F096F9002009B000BD10B5012188077D
:1006F00002F0C3F90121880702F0D0F910BD000013
:100700000008014030B589B002254FF496640121FC
:10071000042000F0F0FF0121082000F0DFFFC020DE
:10072000ADF8200018208DF8230003208DF822005A
:1007300008A9404800F016FDADF81450ADF8184077
:100740000020ADF81600ADF81A0005A93A4801F0EE
:100750006FFB6020ADF804000120ADF8060000201A
:10076000ADF80C0001A9344801F09FFB01A9324803
:1007700001F0DDFB0121304801F0C2FE08212E48C6
:1007800001F0E2FF08212C4801F0E7FF01212A488F
:1007900001F0AAFF0121284801F0A6FE0021264809
:1007A00002F03AF90021244802F038F9002009B09B
:1007B00030BD2DE9F04105460E464FF49660684382
:1007C000642190FBF1F427464FF00008642D05DC0E
:1007D000642E03DC002D01DB002E03DA4FF0FF3026
:1007E000BDE8F081A6F132004FF4966148436421E0
:1007F00090FBF1F84444B4F5966F02DD4FF4966433
:1008000002E0002C00DA0024A7EB0807B7F5966F8A
:1008100002DD4FF4966702E0002F00DA0027B9B23C
:10082000054802F0F9F8A1B2034802F0F7F80020F9
:10083000D6E70000000C01400008004000200CE05A
:10084000002106E00022FE4B03EBC0135A544A1C61
:10085000D1B28029F6DB421CD0B20828F0DB704709
:1008600070B504460D4625B10221F64800F027FD7B
:1008700003E00221F34800F024FD2146F24802F093
:100880000DFA00BF0221F04802F05BFA0028F9D00F
:100890000221EC4800F013FD70BD00B587B00121C6
:1008A0000C2000F01BFF0121080300F017FFA0201F
:1008B000ADF8180018208DF81B0003208DF81A00E1
:1008C00006A9E24800F04EFC0320ADF81800102005
:1008D0008DF81B0003208DF81A0006A9D94800F0F6
:1008E00041FC0321D74800F0EAFC1020ADF81800C5
:1008F0008DF81B0003208DF81A0006A9D34800F0DC
:1009000031FC1021D14800F0DAFC4FF44040ADF842
:1009100004004FF48270ADF806000020ADF8080026
:10092000ADF80A00ADF80C004FF40070ADF80E0001
:100930000820ADF810000020ADF812000720ADF837
:10094000140001A9C04802F0D3F80121BE4802F00A
:1009500074F90121BB4800F0B2FC642000F0B5FA44
:100960000121B84800F0ADFCC82000F0AEFA01212A
:10097000B44800F0A4FC1021B44800F0A2FC00210F
:10098000AE20FFF76DFF0021D520FFF769FF0021A2
:100990005020FFF765FF0021A820FFF761FF00212D
:1009A0003F20FFF75DFF0021D320FFF759FF002113
:1009B0000846FFF755FF00214020FFF751FF0021B7
:1009C0008D20FFF74DFF00211420FFF749FF002184
:1009D0002020FFF745FF00210846FFF741FF0021D7
:1009E000A020FFF73DFF0021C820FFF739FF0021BD
:1009F000DA20FFF735FF00211220FFF731FF002139
:100A00008120FFF72DFF0021EF20FFF729FF0021B4
:100A1000D920FFF725FF0021F120FFF721FF00215A
:100A2000DB20FFF71DFF00213020FFF719FF002119
:100A3000A420FFF715FF0021A620FFF711FF0021DA
:100A4000AF20FFF70DFFFFF7F9FE02217D4800F010
:100A500036FC07B000BD00B58BB00121084600F0A0
:100A600030FE7B4802F0A4F977480C3000907448BF
:100A700001901020029080010390002004908020BB
:100A8000059000200690079020200890C001099052
:100A900000200A9069466E4802F02CFA01220221D9
:100AA000694802F0F2F84FF48061694802F062FA96
:100AB0000121674802F049FA0BB000BD70B500246F
:100AC0000EE0002508E05E4901EBC411485D0121FC
:100AD000FFF7C6FE681CC5B2802DF4DB601CC4B2F3
:100AE000082CEEDB70BDF0B5144600250723A3EB00
:100AF000E103DAB20B46CF1701EB5777FF10A1EBFA
:100B0000C707FEB2C6F107070123BB40DDB24CB1F7
:100B10004B4B03EBC2131B5C2B43494F07EBC21734
:100B20003B5408E0464B03EBC2131B5CAB43444F02
:100B300007EBC2173B54F0BD2DE9F04706460F46C0
:100B400090469946DDF820A034460CE03D4606E08C
:100B5000524629462046FFF7C6FF681CC5B24D45E0
:100B6000F6DD601CC4B24445F0DDBDE8F08730B569
:100B70000B46CC1701EB5474E410C4F10604E1B247
:100B8000A2F12003DAB2334B03EB02135B782C4C57
:100B900004EBC11423542F4B03EB0213DC78284BD6
:100BA00003EBC115431CEC542A4B03EB02135C7995
:100BB000234B03EBC115831CEC54264B03EB0213B0
:100BC000DC791F4B03EBC115C31CEC54214B03EB29
:100BD00002135C7A1A4B03EBC115031DEC541D4B39
:100BE00003EB0213DC7A164B03EBC115431DEC54E7
:100BF000184B03EB02135C7B114B03EBC115831DF8
:100C0000EC54144B03EB0213DC7B0D4B03EBC115CF
:100C1000C31DEC540F4B03EB02131C78084D4B1C07
:100C200005EBC3131C540B4B03EB02139C784B1CBA
:100C300005EBC315431CEC54064B03EB02130BE00E
:100C400048000020000C0140003001400008014035
:100C500030000240743000081C794F4D4B1C05EBEE
:100C6000C315831CEC544D4B03EB02139C794A4D86
:100C70004B1C05EBC315C31CEC54484B03EB021390
:100C80001C7A454D4B1C05EBC315031DEC54434B1F
:100C900003EB02139C7A404D4B1C05EBC315431D1F
:100CA000EC543E4B03EB02131C7B3B4D4B1C05EB02
:100CB000C315831DEC54394B03EB02139C7B364D5B
:100CC0004B1C05EBC315C31DEC5430BD10B50246DB
:100CD000012000E050430B1EA1F10104E1B2F9D163
:100CE00010BD2DE9FF4F074691461D464FF0000A03
:100CF0001026002433E0281B401EC1B20A20FFF753
:100D0000E5FFB9FBF0F00A21B0FBF1F201FB12089C
:100D1000BAF1000F13D1681EA04210DDB8F1000F28
:100D20000BD1B34606EBDB71491001FB0471C8B26D
:100D300020220199FFF71BFF0FE04FF0010AB34695
:100D400006EBDB71491001FB0471C8B208F13001F8
:100D5000CAB20199FFF70BFF00BF601CC4B2AC42DE
:100D6000C9DBBDE8FF8FF0B504460F4615460026E7
:100D70000EE0AA5D39462046FFF7F9FE04F10800AF
:100D8000C4B2782C02DD0024B81CC7B2701CC6B2F5
:100D9000A85D0028EDD1F0BD4800002074300008A7
:100DA00008B50121082000F099FC4FF48070ADF8DF
:100DB000000004208DF8030003208DF8020069462E
:100DC000024800F0CFF9002008BD0000000C0140EF
:100DD0001FB50121022000F08EFC4820ADF8040070
:100DE00042F21070ADF808000020ADF80A00ADF82E
:100DF000060001A9144801F01BF80122114612480F
:100E000001F08DFB1D208DF8000000208DF8010001
:100E100003208DF8020001208DF80300684600F0E1
:100E2000CAFE0121084801F05FFB1FBD10B501217A
:100E3000054801F022FE30B101200449087001216B
:100E4000014801F02BFE10BD0004004024000020EA
:100E500010B56FF0040000F0F8FE2E4800682E492F
:100E6000B0FBF1F02D4908700846007800EB400116
:100E7000C1EBC0104FF6FF7101EAC000284908809D
:100E800010BD0146254A12784A434FF0E0235A61CB
:100E900000229A611A46126942F001021A6100BFEB
:100EA0004FF0E022106900F001021AB100F4803224
:100EB000002AF5D04FF0E022126922F001024FF033
:100EC000E0231A6100229A6170470146144A128891
:100ED0004A434FF0E0235A6100229A611A46126990
:100EE00042F001021A6100BF4FF0E022106900F0E9
:100EF00001021AB100F48032002AF5D04FF0E0224E
:100F0000126922F001024FF0E0231A6100229A6177
:100F1000704700001000002000127A002600002018
:100F200028000020014600BF704700BF494A1288D0
:100F300002F04002002AF9D0C2B2464B1B1D1A80B3
:100F4000704710B586B00446012144F2040000F059
:100F5000C5FB4FF40070ADF8140003208DF81600A7
:100F600018208DF8170005A93B4800F0FBF84FF456
:100F70008060ADF8140004208DF8170005A93648EC
:100F800000F0F0F825208DF8000003208DF8010016
:100F90008DF8020001208DF80300684600F00BFE7A
:100FA00001940020ADF80800ADF80A00ADF80C007F
:100FB000ADF810000C20ADF80E0001A9254800F096
:100FC00034FC012240F22551224800F0C6FC0121E8
:100FD000204800F0B6FC06B010BD10B540F2255117
:100FE0001C4800F09FFD10B31A4800F01BFDC4B26E
:100FF0001A48008800F40040C8B91848008800F476
:10100000804060B10A2C03D000201449088020E001
:101010001248008840F400401049088019E00D2C67
:1010200006D10E48008840F480400C49088010E04A
:101030000A480088C0F30D0009490C54074800888D
:10104000401C0649088008460088C72801DD0020AA
:10105000088010BD00380140000801403000002029
:10106000480400200948804709480047FEE7FEE79A
:10107000FEE7FEE7FEE7FEE7FEE7FEE7FEE7FEE748
:1010800004480549054A064B70470000030500085F
:10109000ED00000870050020700B00207007002094
:1010A0007007002010B50446CC48844208D10121C5
:1010B000042000F02DFB0021042000F029FB46E075
:1010C000C748844208D10121082000F021FB0021FB
:1010D000082000F01DFB3AE0C248844208D10121FB
:1010E000102000F015FB0021102000F011FB2EE075
:1010F000BD48844208D10121202000F009FB0021D5
:10110000202000F005FB22E0B848844208D10121EC
:10111000402000F0FDFA0021402000F0F9FA16E02E
:10112000B348844208D10121802000F0F1FA002167
:10113000802000F0EDFA0AE0AE48844207D1012198
:10114000801500F0E5FA0021A01500F0E1FA10BDCD
:1011500010B50121084600F0DBFA0021012000F063
:10116000D7FA10BD2DE9F0410246002500260020E7
:1011700000230024002791F803C00CF00F0591F81C
:1011800003C00CF0100CBCF1000F03D091F802C0AA
:101190004CEA050591F800C0BCF1000F31D014688D
:1011A00000202BE04FF0010C0CFA00F3B1F800C066
:1011B0000CEA03069E4220D183004FF00F0C0CFA7C
:1011C00003F7BC4305FA03FC4CEA040491F803C09E
:1011D000BCF1280F06D14FF0010C0CFA00FCC2F84C
:1011E00014C00AE091F803C0BCF1480F05D14FF0DC
:1011F000010C0CFA00FCC2F810C0401C0828D1D326
:101200001460B1F800C0BCF1FF0F34DD5468002059
:101210002EE000F1080C4FF0010808FA0CF3B1F8C9
:1012200000C00CEA03069E4221D183004FF00F0C50
:101230000CFA03F7BC4305FA03FC4CEA040491F8EA
:1012400003C0BCF1280F05D100F1080C08FA0CF816
:10125000C2F8148091F803C0BCF1480F07D100F127
:10126000080C4FF0010808FA0CF8C2F81080401C76
:101270000828CED35460BDE8F0814FF6FF7101809D
:10128000022181700421C1707047024600209368DA
:101290000B400BB1012000E0002070470146886838
:1012A00080B2704702460020D3680B400BB101208A
:1012B00000E0002070470146C86880B270470161B5
:1012C0007047416170470AB1016100E041617047B8
:1012D000C16070474FF480320A438261816182614C
:1012E00082698269704702460020434B18684FF6B6
:1012F0008073184040EA021008433F4B1860704763
:101300003E49C8617047F0B50A4600230024002119
:10131000002500F00046B6F1004F02D1364EF169CB
:1013200001E0354E7168C0F3034583B200F4401606
:10133000B6F5401F08D121F070612F4E766826F077
:1013400070662D4F7E6012E000F48016B6F5801FA7
:1013500006D1032606FA05F4A14341F0706106E0C8
:10136000460D360103FA06F6B14341F0706122B131
:10137000460D360103FA06F6314300F00046B6F199
:10138000004F02D11C4EF16101E01B4E7160F0BDB7
:1013900030B500228B071C0F0F2303FA04F2164B03
:1013A00008338C1053F824309343134C08348D10B9
:1013B00044F8253023468C1053F824308C07240F32
:1013C00000FA04F423430C4C08348D1044F8253003
:1013D00030BD0A49DC310860704700000008014058
:1013E000000C0140001001400014014000180140B1
:1013F000001C01400020014000000140000020428C
:10140000DF48006840F00100DD4908600846406898
:10141000DC490840DA49486008460068DA49084073
:10142000D74908600846006820F480200860084614
:10143000406820F4FE0048604FF41F008860704749
:10144000CF49096821F48031CD4A116011460968FD
:1014500021F480211160B0F5803F03D0B0F5802FDA
:101460000ED106E0C649096841F48031C44A1160D2
:1014700007E0C349096841F4A021C14A116000E0B6
:1014800000BF00BF704710B50146002200230020B6
:101490004A11012A02D1BA4C236806E0022A02D17D
:1014A000B74C236A01E0B64C636A01F01F020124C5
:1014B00094401C400CB1012000E0002010BD38B564
:1014C000002000900024002500BF3120FFF7DBFF43
:1014D00005460098401C00900098B0F5A06F01D020
:1014E000002DF2D03120FFF7CEFF08B1012400E03B
:1014F0000024204638BD01460020A14A106820F093
:10150000F80040EAC10010607047A04908607047C9
:10151000024600209A4B586820F47C1042EA0103EE
:101520001843974B586070479849086670470146C2
:101530000020934A506820F0030008435060704731
:101540008F48406800F00C007047014600208C4A2C
:10155000506820F0F00008435060704701460020BA
:10156000874A506820F4E0600843506070470146A5
:101570000020834A506820F4605040EAC100506067
:10158000704729B17E4A527A02437D4B5A7204E079
:101590007B4A527A82437A4B5A7270477B49D831E0
:1015A0000860704701460020754A506820F44040AA
:1015B0000843506070470021714A20321170704A10
:1015C00082F82010012802D004280AD104E0012169
:1015D0006B4A2032117005E00521694A20321170F2
:1015E00000E000BF00BF7047694908607047644968
:1015F000096A0143624A11627047654944390860CB
:10160000704730B500210022002400235C4D6D6836
:1016100005F00C0121B1042905D0082923D105E0EA
:101620005C4D056022E05B4D05601FE0544D6D6828
:1016300005F47012524D6D6805F48034022505EBF7
:1016400092421CB9544D554305600BE04C4D6D68FA
:1016500005F400351DB1504D5543056002E04D4D78
:101660005543056002E04B4D056000BF00BF444D8F
:101670006D6805F0F0010909484D6B5C0568DD40B7
:1016800045603F4D6D6805F4E061090A434D6B5CB0
:101690004568DD4085603A4D6D6805F46051C90AC2
:1016A0003E4D6B5C4568DD40C560354D6D6805F4A9
:1016B0004041890B3A4D6B5CC568B5FBF3F505619C
:1016C00030BD29B12E4A526902432D4B5A6104E0C4
:1016D0002B4A526982432A4B5A61704729B1284AE2
:1016E00092690243264B9A6104E0254A926982433B
:1016F000234B9A61704729B1214AD2690243204B9A
:10170000DA6104E01E4AD26982431D4BDA617047F8
:1017100029B11B4AD2680243194BDA6004E0184A27
:10172000D2688243164BDA60704729B1144A1269B5
:101730000243134B1A6104E0114A12698243104BB1
:101740001A61704712494039086070470F49C864F0
:1017500070470B49C87170470948406A40F0807073
:1017600007494862704701460020054A92680A40CE
:101770000AB1012000E000207047014988727047DB
:10178000001002400000FFF8FFFFF6FE000042429A
:101790008004424200127A0000093D00320000201D
:1017A0004200002010B50446FB48844209D10121C3
:1017B0008803FFF7ADFF00214FF48040FFF7A8FF3B
:1017C00032E0F648844209D101214804FFF7ADFF19
:1017D00000214FF40030FFF7A8FF25E0F0488442D5
:1017E00009D101218804FFF7A0FF00214FF48020D8
:1017F000FFF79BFF18E0EB48844209D10121C804A0
:10180000FFF793FF00214FF40020FFF78EFF0BE05E
:10181000E548844208D101210805FFF786FF002131
:101820004FF48010FFF781FF10BD2DE9F04786B01F
:1018300005460E460024A24600BFA1460027B089F7
:1018400000B100BF2F462C8A4CF6FF700440F08890
:1018500004432C82AC894EF6F3100440B0883189E1
:101860000843718908430443AC81AC8A4FF6FF40BA
:101870000440B0890443AC8201A8FFF7C2FEC64809
:10188000874202D1DDF810A001E0DDF80CA0A889A4
:1018900000F4004040B10AEBCA0000EB0A103168C6
:1018A0004900B0FBF1F807E00AEBCA0000EB0A10B0
:1018B00031688900B0FBF1F86420B8FBF0F0040156
:1018C0002009642101FB1089A88900F4004040B17F
:1018D000322000EBC900B0FBF1F000F00700044338
:1018E00008E0322000EB09106421B0FBF1F000F0B9
:1018F0000F0004432C8106B0BDE8F0874FF4165169
:10190000016000218180C18001810C214181002181
:101910008181704710B502460020108A4FF2FF0304
:1019200018400B884C8823438C882343CC8823435E
:101930001843108210BD0021018041808180C18048
:10194000704721B1828942F40052828104E0828989
:101950004DF6FF731A4082817047F0B503460024AC
:1019600000260025002040F66A17B94200D100BFCA
:101970001846C1F3421401F01F06012707FA06F5C5
:10198000012C01D10C3004E0022C01D1103000E018
:1019900014301AB107682F43076002E00768AF43AD
:1019A0000760F0BD1AB1838A0B43838202E0838A09
:1019B0008B4383827047028A4FF6F0731A4002828B
:1019C000028A0A430282704782894FF2FF731A40EB
:1019D000828182890A438281704721B1828942F0E3
:1019E0000202828104E082894FF6FD731A408281EF
:1019F0007047028A4FF6DF731A400282028A0A4356
:101A00000282704721B1028A42F48042028204E0DD
:101A1000028A4BF6FF731A4002827047C1F3080234
:101A20008280704701468888C0F30800704781892A
:101A300041F0010181817047028BD2B20283028B97
:101A400042EA012202837047028B02F47F42028342
:101A5000028B0A430283704721B1828A42F020023E
:101A6000828204E0828A4FF6DF731A4082827047D6
:101A700021B1828A42F01002828204E0828A4FF60B
:101A8000EF731A408282704721B1828A42F00802C5
:101A9000828204E0828A4FF6F7731A40828270478E
:101AA00021B1828942F40042828103E08289C2F33B
:101AB0000E028281704721B1828A42F400628282E2
:101AC00004E0828A4FF2FF731A4082827047828A52
:101AD0004FF6FB731A408282828A0A4382827047E1
:101AE00021B1828A42F00202828204E0828A4FF6A9
:101AF000FD731A408282704702460020B1F5007FD4
:101B000000D100BF13880B400BB1012000E0002082
:101B1000704701F40072B2F5007F00D100BFCA43E4
:101B20000280704770B50246002400230025002083
:101B300040F66A16B14200D100BFC1F3421501F070
:101B40001F03012606FA03F3012D02D196893340C3
:101B500006E0022D02D1168A334001E0968A334016
:101B60000C12012606FA04F41688344013B10CB1A5
:101B7000012000E0002070BD10B50022002340F6D7
:101B80006A14A14200D100BF0A1201249440A3B2FA
:101B9000DC43048010BD00000038014000440040D8
:101BA00000480040004C00400050004031490143D3
:101BB000314A1160704770B5002100230F22C478AC
:101BC00004B32D4C246804F4E064C4F5E064210AF5
:101BD000C1F10403CA40447804FA03F18478144044
:101BE00021430901254C0678A155047804F01F050E
:101BF0000124AC4005786D11AD0005F1E025C5F874
:101C0000004109E0047804F01F050124AC401C4D9C
:101C10000678761145F8264070BD1A4A0A400243FC
:101C2000154B1B1F1A60704739B1134A121D1268F9
:101C30000243114B1B1D1A6006E00F4A121D126869
:101C400082430D4B1B1D1A607047042808D14FF0CA
:101C5000E021096941F004014FF0E022116107E041
:101C60004FF0E021096921F004014FF0E0221161F9
:101C7000704700000000FA050CED00E000E400E011
:101C800080E100E080FFFF1F10B50446FE4884425B
:101C900008D10121C014FFF73BFD0021E014FFF73C
:101CA00037FDC4E0B4F1804F08D101210846FFF7A9
:101CB0003CFD00210120FFF738FDB8E0F3488442E5
:101CC00008D101210220FFF730FD00210220FFF79B
:101CD0002CFDACE0EE48844208D101210420FFF73E
:101CE00024FD00210420FFF720FDA0E0E948844204
:101CF00008D101210820FFF718FD00210820FFF777
:101D000014FD94E0E448844208D101211020FFF73B
:101D10000CFD00211020FFF708FD88E0DF48844219
:101D200008D101212020FFF700FD00212020FFF72E
:101D3000FCFC7CE0DA48844208D101214014FFF722
:101D4000E7FC00216014FFF7E3FC70E0D548844213
:101D500009D10121C804FFF7DBFC00214FF400206A
:101D6000FFF7D6FC63E0D048844209D10121080581
:101D7000FFF7CEFC00214FF48010FFF7C9FC56E0BE
:101D8000CA48844209D101214805FFF7C1FC00215E
:101D90004FF40010FFF7BCFC49E0C548844208D16D
:101DA00001214020FFF7C1FC00214020FFF7BDFCCE
:101DB0003DE0C048844208D101218020FFF7B5FCF6
:101DC00000218020FFF7B1FC31E0BB48844208D1FC
:101DD00001218015FFF7A9FC0021A015FFF7A5FC44
:101DE00025E0B648844209D101210804FFF790FCA0
:101DF00000214FF48030FFF78BFC18E0B04884429C
:101E000009D101214804FFF783FC00214FF4003081
:101E1000FFF77EFC0BE0AB48844208D10121880427
:101E2000FFF776FC00214FF48020FFF771FC10BD16
:101E300000220288944B98420ED0994B98420BD0C6
:101E4000B0F1804F08D0914B984205D0904B98420A
:101E500002D0904B984204D14FF68F731A404B88B2
:101E60001A438D4B984207D08C4B984204D04FF6C2
:101E7000FF431A40CB881A4302808B8883850B88E6
:101E80000385814B98420BD0854B984208D08B4BF1
:101E9000984205D08A4B984202D08A4B984201D191
:101EA0000B7A038601238382704770B500240022D9
:101EB0000023058C4FF6FE7635400584028C83881E
:101EC000048B4FF68F752C40B51E2C400D882C438B
:101ED000751E2A400D892A434D882A436A4DA8421F
:101EE0000BD06F4DA84208D0744DA84205D0744D58
:101EF000A84202D0734DA84213D14FF6F7752A407D
:101F00004D892A434FF6FB752A408D882A434FF6A8
:101F1000FF652B404FF6FF552B408D892B43CD8914
:101F20002B4383800483CD888586028470BD70B581
:101F3000002400220023058C4FF6EF7635400584FF
:101F4000028C8388048B48F6FF752C404FF6FF45C2
:101F50002C400D884FF6FF7606EA05252C434FF6F8
:101F6000DF752A400D8906EA05152A434D8806EAE1
:101F700005152A43444DA84202D0494DA8421DD11F
:101F80004FF67F752A404D894FF6FF7606EA051514
:101F90002A434FF6BF752A408D8806EA05152A4365
:101FA0004FF6FF352B404FF2FF752B408D8906EA27
:101FB00085052B43CD8906EA85052B438380048361
:101FC000CD880587028470BD70B5002400220023EF
:101FD000058C4FF6FF6635400584028C8388848B20
:101FE0004FF68F752C404FF6FC752C400D882C4316
:101FF0004FF6FF552A400D894FF6FF7606EA052574
:102000002A434D8806EA05252A431F4DA84202D0DF
:10201000234DA8421DD14FF2FF752A404D894FF63E
:10202000FF7606EA05252A434FF6FF352A408D88BC
:1020300006EA05252A434EF6FF752B404DF6FF753F
:102040002B408D8906EA05152B43CD8906EA051537
:102050002B4383808483CD888587028470BD70B5CF
:10206000002200230024058C4EF6FF7635400584BF
:10207000038C8488828B48F6FF752A404FF6FF4513
:102080002A400D8820E00000002C014000040040A0
:1020900000080040000C0040001000400014004008
:1020A00000340140004C0140005001400054014008
:1020B00000180040001C004000200040004001408B
:1020C00000440140004801404FF6FF7606EA05252E
:1020D0002A434DF6FF752B400D8906EA05352B4343
:1020E0004D8806EA05352B43FA4DA84202D0FA4D39
:1020F000A84208D14BF6FF752C408D894FF6FF762C
:1021000006EA85152C4384808283CD88A0F8405050
:10211000038470BD828B4FF2FF331A408283828B1F
:102120004FF6FF7303EA01231A4382837047F0B529
:102130000C461546002200210026078C4EF6FF7C37
:1021400007EA0C070784828B018C4FF6FF7707EABA
:10215000043640F6FF473A404FF6FF7707EA052777
:102160003A434FF6FF7707EA03373A43D94FB8426D
:102170000ED0D94FB8420BD0B0F1804F08D0D74F16
:10218000B84205D0D64FB84202D0D64FB84206D199
:102190004DF6FF77394046F48057394305E047F65E
:1021A000FF57394044F48057394382830184F0BD9E
:1021B000828B4FF6F3731A408283828B0A438283A9
:1021C0007047F0B50C461546002200210026078C0A
:1021D0004FF6FF6C07EA0C070784828B018C4FF6E1
:1021E000FF7707EA04264FF60C773A404FF6FF7761
:1021F00007EA03172F433A43B64FB8420ED0B64F03
:10220000B8420BD0B0F1804F08D0B44FB84205D0DF
:10221000B34FB84202D0B34FB84206D14FF6FF5782
:10222000394046F48077394305E04FF2FF57394093
:1022300044F48077394382830184F0BD028B4FF2EE
:10224000FF331A400283028B4FF6FF7303EA012328
:102250001A4302837047F0B50C4615460022002150
:102260000026078C4FF6EF7C07EA0C070784028BE9
:10227000018C4FF6FF7707EA041640F6FF473A4015
:102280004FF6FF7707EA03373A434FF6FF7707EA3F
:1022900005273A438F4FB8420ED08F4FB8420BD02C
:1022A000B0F1804F08D08D4FB84205D08C4FB84266
:1022B00002D08C4FB84206D14FF6DF77394046F056
:1022C0001007394305E04FF65F77394044F01007B7
:1022D000394302830184F0BD028B4FF6F3731A4039
:1022E0000283028B0A4302837047F0B50C46154601
:1022F00000220021068C4FF6FE773E400684028BBA
:10230000018C4FF60C7632407E1C06EA03162E43F3
:102310003243704EB0420ED06F4EB0420BD0B0F18F
:10232000804F08D06D4EB04205D06D4EB04202D005
:102330006C4EB04206D14FF6FD76314044F00106B6
:10234000314305E04FF6F576314044F00106314364
:1023500002830184F0BD70B505460C465D48854298
:102360000ED05D4885420BD0B5F1804F08D05B4858
:10237000854205D05A48854202D05A48854200D14C
:1023800000E000BF208850B92389A28861882846D0
:10239000FFF7ABFFE1882846FFF79EFF25E0208886
:1023A00004280AD12389A28861882846FFF753FFB1
:1023B000E1882846FFF742FF17E0208808280AD165
:1023C0002389A28861882846FFF7FBFEE18828461A
:1023D000FFF7EEFE09E02389A28861882846FFF70F
:1023E000A6FEE1882846FFF795FE70BD2DE9F04175
:1023F00005460C4600260127608808B9022600E041
:102400000026A088012801D1022700E001272088AA
:10241000A0B92389A28861882846FFF766FFE18872
:102420002846FFF759FF23893A4631462846FFF7E9
:1024300012FFE1882846FFF701FF13E02389A288F5
:1024400061882846FFF707FFE1882846FFF7F6FE78
:1024500023893A4631462846FFF747FFE188284658
:10246000FFF73AFFBDE8F0810A884B881A438B8852
:102470001A43CB881A430B891A434B891A438B8919
:102480001A43A0F8442070474FF6FF718180002165
:102490000180C1804180017270470021018041802C
:1024A0008180C180018141818181C181704700218A
:1024B00001804180012181800021C180018170471C
:1024C0000021018041808180C18001814181818121
:1024D00070470000002C014000340140000400401F
:1024E00000080040000C004021B1028842F00102C7
:1024F000028004E002884FF6FE731A4002807047A3
:1025000031B1B0F8442042F40042A0F8442005E084
:10251000B0F84420C2F30E02A0F8442070471AB16C
:1025200083890B43838102E083898B4383817047D6
:102530008182704741EA0203A0F8483070471AB11F
:1025400083890B43838102E083898B4383817047B6
:1025500001894FF6F8721140018170470A46002147
:1025600001894FF68F73194011430181704730B5CF
:1025700004460D4629462046FFF7F0FF208940F02B
:102580000700208130BD2DE9F04104460D46164676
:102590001F46602D06D13B46012231462046FFF7FB
:1025A0005AFE05E03B46012231462046FFF79DFEDC
:1025B00029462046FFF7D2FF208940F007002081FE
:1025C000BDE8F08130B50C4600210189C9B24FF653
:1025D000FF7505EA0325154325432943018130BDD5
:1025E0002DE9F04105460E4617469846002443461D
:1025F0003A4631462846FFF7E5FF2C894FF6F8703A
:10260000044044F007044FF68F70044044F0700417
:102610002C81BDE8F081F0B504460D4616461F46F4
:102620003B46324629462046FFF7CCFF208940F43E
:1026300080402081F0BD0185828270470A460021DA
:1026400001884FF68F731940114301807047F0B530
:102650000C4615461E460021002200230189028BEC
:10266000038C4FF6F877394021434FF6FC473A4048
:1026700040F201173A434FF6DD773B404FF6FF77C4
:1026800007EA06172F433B43018102830384F0BD11
:102690000A460021018B4FF68F73194011430183C5
:1026A00070470A460021018B48F6FF7319404FF628
:1026B000FF7303EA02231943018370470A4600218E
:1026C000818B4FF68F7319401143818370470A46FF
:1026D0000021818B48F6FF7319404FF6FF7303EA20
:1026E000022319438183704721B1028842F080029E
:1026F000028004E002884FF67F731A400280704720
:1027000021B1828842F00402828004E082884FF680
:10271000FB731A408280704721B1828842F0080220
:10272000828004E082884FF6F7731A4082807047F7
:1027300021B1828842F00102828004E082884FF653
:10274000FE731A40828070470A460021018B4FF6C3
:10275000F77319401143018370470A460021018B2A
:102760004FF2FF7319404FF6FF7303EA0223194338
:10277000018370470A460021818B4FF6F773194099
:102780001143818370470A460021818B4FF2FF730A
:1027900019404FF6FF7303EA022319438183704700
:1027A0000A460021018B4FF6FB7319401143018348
:1027B00070470A460021018B4FF6FF3319404FF650
:1027C000FF7303EA02231943018370470A4600217D
:1027D000818B4FF6FB7319401143818370470A4682
:1027E0000021818B4FF6FF3319404FF6FF7303EA48
:1027F00002231943818370470A460021018B4FF65B
:102800007F7319401143018370470A460021018BF1
:10281000C1F30E014FF6FF7303EA0223194301834C
:1028200070470A460021818B4FF67F731940114390
:10283000818370470A460021818BC1F30E014FF658
:10284000FF7303EA02231943818370470A4600217C
:10285000018C4FF6FD7319401143018470470A46FD
:102860000021018C4FF6F773194011430184704722
:102870000A460021018C4FF6DF7319404FF6FF73B3
:1028800003EA02131943018470470A460021018CB0
:102890004FF67F7319404FF6FF7303EA0213194393
:1028A000018470470A460021018C4FF6FF531940FE
:1028B0004FF6FF7303EA02231943018470470A4667
:1028C0000021018C4FF2FF7319404FF6FF7303EAAA
:1028D00002231943018470470A460021018C4DF6FA
:1028E000FF7319404FF6FF7303EA02331943018463
:1028F000704730B5002301248C40A3B2048C9C4364
:102900000484048C02FA01F5ADB22C43048430BD7A
:1029100030B5002304248C40A3B2048C9C4304846F
:10292000048C02FA01F5ADB22C43048430BD70B5BD
:102930000346002000241846183001258D40ACB213
:102940001D8CA5431D8409B1082909D100EB610044
:10295000056825F0700505600568154305600EE003
:102960000D1FC5F34E052844056825F4E0450560B4
:1029700005684FF6FF7606EA02263543056070BD0E
:1029800021B1028842F00202028004E002884FF680
:10299000FD731A400280704721B1028842F00402A0
:1029A000028004E002884FF6FB731A4002807047F1
:1029B00021B1828842F08002828004E082884FF652
:1029C0007F731A408280704702884FF6F7731A406F
:1029D000028002880A430280704782884FF68F7314
:1029E0001A40828082880A438280704702894FF6AB
:1029F000F8731A40028102890A43028170470289F2
:102A00004FF67F731A40028102890A4302817047A0
:102A10008184704781857047818670470187704740
:102A200081877047A0F84010704702884FF6FF4337
:102A30001A40028002880A43028070470146888E4D
:102A400070470146088F70470146888F70470146DE
:102A5000B1F8400070470146888C70470146088DE8
:102A6000704702460020138A0B400BB1012000E0A2
:102A700000207047CA430282704730B502460020EA
:102A800000230024158A05EA0103958905EA01045B
:102A900013B10CB1012000E0002030BDCA43028216
:102AA0007047000010B50446BE48844208D1012199
:102AB0008014FEF72DFE0021A014FEF729FE16E07B
:102AC000B948844208D101210014FEF72EFE0021EE
:102AD0002014FEF72AFE0AE0B448844207D10121FF
:102AE000C013FEF722FE0021E013FEF71EFE10BD0C
:102AF00010B50022028802F441520B884C8823430F
:102B00008C882343CC8823430C8923434C8923435B
:102B10008C892343CC8923431A430280838B4FF251
:102B2000FF74234083830B8A038210BD2DE9F04F8D
:102B300085B005460C464FF0000902274FF000080B
:102B40004FF0010B0026B246A88B4FF2400108401F
:102B5000A88302202884B5F81C90A068022801D11F
:102B600000BF38E0A08810B94FF0010B01E04FF032
:102B7000020B8D48854200D100E000BF6846FEF799
:102B800040FDDDF800A0E088B0F5007F0AD14FEAF3
:102B90001A2000EB80004000A168B0FBF1F0401D5E
:102BA00086B20BE04FEA4B10BAFBF0F000EB80006E
:102BB0004000A168B0FBF1F0401D86B20A20B6FBD0
:102BC000F0F606F00108A6EB0800C0F34F074FF639
:102BD000FF7000EA0828022F01DBFF2F02DD022729
:102BE0004FF00008E08840EA080038432884A088B5
:102BF000A1890843618808432188084340F40060A4
:102C000040EA0909A5F81C9005B0BDE8F08F002145
:102C1000018041808180C180018141818181C181A8
:102C20000721018270470021018041808180C1809D
:102C30000221816000218181704721B1028842F028
:102C40004002028004E002884FF6BF731A400280FF
:102C5000704721B1828B42F48062828304E0828BD0
:102C60004FF6FF331A408283704730B500240023AB
:102C70000C110125A540ABB21AB185881D43858092
:102C800002E085889D43858030BD1AB183880B435F
:102C9000838002E083888B43838070478181704703
:102CA0000146888970474FF6FF62914204D002883E
:102CB00042F48072028004E002884FF6FF631A40FB
:102CC0000280704721B1828842F00402828004E0D1
:102CD00082884FF6FB731A408280704702884FF259
:102CE000FF731A40028002880A43028070470188FD
:102CF00041F480510180704721B1028842F40052B2
:102D0000028004E002884DF6FF731A40028070478B
:102D100002460020012901D0108B00E0908A704704
:102D20000146088A7047B1F5804F04D1028842F409
:102D30008042028004E002884BF6FF731A40028052
:102D400070470246002013890B400BB1012000E0C0
:102D500000207047CA4302817047F0B50246002048
:102D600000240023002501F00F070126BE40B4B265
:102D70000B1101269E40B3B2968806EA0305168918
:102D8000264016B10DB1012000E00020F0BD10B5C5
:102D9000002201F00F040123A3409AB2D343038120
:102DA00010BD00000030014000380040003C0040F1
:102DB00001684FF6FE721140016000210160416020
:102DC0008160C1608D49884208D18C4908394968C1
:102DD00041F00F01894A083A51608AE0874914316D
:102DE000884208D185490839496841F0F001834A91
:102DF000083A51607DE081492831884208D17F49F5
:102E00000839496841F470617C4A083A516070E0C1
:102E10007A493C31884208D178490839496841F4F7
:102E20007041764A083A516063E0744950318842F3
:102E300008D172490839496841F470216F4A083A4B
:102E4000516056E06D496431884208D16B490839B8
:102E5000496841F47001694A083A516049E067499C
:102E60007831884208D165490839496841F0706174
:102E7000624A083A51603CE06149884206D1011F2C
:102E8000096841F00F01021F116032E05C49143102
:102E9000884208D15A49091F096841F0F001584A8F
:102EA000121F116025E056492831884208D1544943
:102EB000091F096841F47061514A121F116018E03E
:102EC0004F493C31884208D14D49091F096841F4F6
:102ED00070414B4A121F11600BE049495031884242
:102EE00007D14749091F096841F47021444A121F5C
:102EF0001160704710B50022026847F6F0739A43DC
:102F00000C6A8B6823430C6923434C6923438C6907
:102F10002343CC6923434C6A23438C6A23431A43DB
:102F20000260CB6843600B6883604B68C36010BD70
:102F30000021016041608160C16001614161816186
:102F4000C161016241628162704721B1026842F051
:102F50000102026004E002684FF6FE731A4002604C
:102F600070471AB103680B43036002E003688B43A8
:102F700003607047416070470146486880B27047FF
:102F800001460020002201F080531BB11C4B083B7E
:102F90001A6802E0194B083B1A6802EA01030BB1F8
:102FA000012000E00020704700F0805119B1144961
:102FB000091F086002E0114908394860704701465E
:102FC0000020002201F080531BB10D4B083B1A6812
:102FD00002E00A4B083B1A6802EA01030BB1012028
:102FE00000E00020704700F0805119B10449091F2A
:102FF000086002E001490839486070470800024053
:103000000804024070477047704770477047754624
:1030100000F02CF8AE4605006946534620F0070044
:10302000854618B020B5FEF72BF8BDE820404FF0DC
:1030300000064FF000074FF000084FF0000B21F0A2
:103040000701AC46ACE8C009ACE8C009ACE8C0096F
:10305000ACE8C0098D46704710B50446AFF3008058
:103060002046BDE81040FDF788B8000000487047D2
:10307000100500200000000000000000000000001B
:10308000000000000000000000001FCC000C000049
:103090000000000000000800300060000800300060
:1030A00060000000022003FC1E20022003FC1E2002
:1030B0000220000000000E1811043FFF10840C785D
:1030C000000000000F0010840F3800C0077818843B
:1030D0000078000000780F8410C411240E9800E4DA
:1030E0000084000808006800700000000000000074
:1030F0000000000000000000000007E01818200495
:1031000040020000000040022004181807E0000000
:10311000000000000240024001800FF001800240E8
:10312000024000000080008000800FF800800080D6
:10313000008000000001000D000E000000000000F3
:1031400000000000000000800080008000800080FF
:10315000008000800000000C000C00000000000057
:10316000000000000000000600180060018006005A
:1031700018002000000007F00808100410040808D8
:1031800007F000000000080408041FFC000400040D
:103190000000000000000E0C1014102410441184D4
:1031A0000E0C000000000C18100411041104128809
:1031B0000C700000000000E00320042408241FFC21
:1031C0000024000000001F981084110411041088CE
:1031D00010700000000007F008881104110418881E
:1031E0000070000000001C00100010FC13001C0008
:1031F0001000000000000E381144108410841144A7
:103200000E38000000000700088C104410440888A5
:1032100007F00000000000000000030C030C000099
:103220000000000000000000000101060000000096
:103230000000000000000080014002200410080887
:10324000100400000220022002200220022002209E
:1032500002200000000010040808041002200140B1
:103260000080000000000E001200100C106C108096
:103270000F00000003E00C1813E4142417C40828FE
:1032800007D000000004003C03C41C40074000E4D9
:10329000001C000410041FFC1104110411040E880A
:1032A0000070000003E00C18100410041004100853
:1032B0001C10000010041FFC100410041004080867
:1032C00007F0000010041FFC1104110417C41004BF
:1032D0000818000010041FFC1104110017C0100092
:1032E0000800000003E00C181004100410441C78BF
:1032F0000040000010041FFC108400800080108437
:103300001FFC10040000100410041FFC1004100423
:103310000000000000030001100110011FFE10005A
:103320001000000010041FFC110403801464181C1A
:103330001004000010041FFC10040004000400042A
:10334000000C000010041FFC1F0000FC1F001FFCED
:103350001004000010041FFC0C04030000E010180F
:103360001FFC100007F008081004100410040808DF
:1033700007F0000010041FFC1084108010801080E3
:103380000F00000007F0081810241024101C080A71
:1033900007F2000010041FFC1104110011C01130CD
:1033A0000E0C000400000E1C110410841084104444
:1033B0001C3800001800100010041FFC100410003E
:1033C0001800000010001FF810040004000410048E
:1033D0001FF8100010001E0011E0001C0070138088
:1033E0001C0010001FC0103C00E01F0000E0103C5B
:1033F0001FC000001004180C163401C001C01634A0
:10340000180C100410001C00130400FC13041C0012
:10341000100000000804101C1064108413041C0425
:10342000101800000000000000007FFE4002400273
:1034300040020000000030000C0003800060001C0F
:103440000003000000004002400240027FFE000036
:10345000000000000000000020004000400040008C
:103460002000000000010001000100010001000136
:1034700000010001000040004000200000000000AA
:1034800000000000000000980124014401440144B0
:1034900000FC000410001FFC0088010401040088E7
:1034A00000700000000000700088010401040104A5
:1034B0000088000000000070008801040104110869
:1034C0001FFC0004000000F80144014401440144D1
:1034D00000C800000000010401040FFC11041104E5
:1034E00011001800000000D601290129012901C995
:1034F0000106000010041FFC00840100010001040B
:1035000000FC000400000104190419FC000400047C
:10351000000000000000000300010101190119FE74
:103520000000000010041FFC0024004001B4010C46
:10353000010400000000100410041FFC000400043B
:1035400000000000010401FC0104010001FC010471
:10355000010000FC010401FC0084010001000104E1
:1035600000FC0004000000F801040104010401044F
:1035700000F80000010101FF00850104010400883A
:1035800000700000000000700088010401040105C3
:1035900001FF00010104010401FC00840104010099
:1035A00001800000000000CC01240124012401243A
:1035B0000198000000000100010007F80104010467
:1035C00000000000010001F80004000400040108EC
:1035D00001FC0004010001800170000C001001607A
:1035E0000180010001F0010C003001C00030010C2D
:1035F00001F0010000000104018C00740170018CD5
:1036000001040000010101810171000E0018016038
:103610000180010000000184010C01340144018497
:10362000010C0000000000000000000001003EFC52
:10363000400240020000000000000000FFFF000008
:10364000000000000000400240023EFC01000000BB
:10365000000000000000600080008000400040008A
:1036600020002000843600080000002048000000F0
:1036700028010008CC36000848000020280B000074
:1036800044010008000000000000000000000000ED
:103690003200320000A24A040000000000000000D6
:1036A00001020304060708090000000000000000F2
:1036B00000000000000000000000010203040102FD
:0C36C000030406070809020406080000C5
:04000005080000ED02
:00000001FF
